:020000040000FA
:02000000782C5A
:040008008031802C97
:02000E007A086E
:10001000FD000030FE001330FD070318FE0A7E08C5
:100020008A007D088200003402340334053406342B
:10003000083409340B340D340E34103411341334B5
:1000400015341634183419341B341D341E3420343E
:100050002134233425342634283429342B342D34C8
:100060002E343034313433343534363438343A3451
:100070003B343D343F3440344234443445344734D7
:1000800049344B344C344E34503451345334553459
:10009000573458345A345C345E34603461346334D9
:1000A0006534673469346B346C346E347034723454
:1000B0007434763478347A347C347E3480348234C8
:1000C0008434863488348A348C348E349034923438
:1000D0009434963498349A349C349F34A134A334A5
:1000E000A534A834AA34AC34AE34B134B334B53406
:1000F000B834BA34BD34BF34C234C434C734C9345C
:10010000CC34CE34D134D434D634D934DC34DE34A7
:10011000E134E434E734EA34ED34F034F334F634E3
:10012000F934FC34FF34FD01FE01F901FA01FB0151
:1001300010307B05FC00FC08031D0800F935FA0DA2
:10014000F40DF50DFD0DFE0D77087E02031DAA28A6
:1001500076087D02031CB3287608FD027708031C8D
:10016000FE03FE027914FB0A9828F301F401F5015D
:10017000F601F901FA01FB01FC01F70120307705D6
:10018000F800F808031D0800F935FA0DFB0DFC0D09
:10019000E70DE80DE90DEA0DF30DF40DF50DF60D83
:1001A0006E087602031DDE286D087502031DDE2829
:1001B0006C087402031DDE286B087302031CEF2811
:1001C0006B08F3026C08031C6C0FF4026D08031C2F
:1001D0006D0FF5026E08031C6E0FF6027914F70A14
:1001E000BE2821008C168E15033020005E060319F0
:1001F0005F0803190E2902305E0603195F08031910
:10020000142901305E0603195F0803191A29DE0854
:10021000031D0800DF08031D0800202922008C169A
:100220000C1021008C12080022008E110C142100E9
:100230008E11080022008E150C1021008E1108006E
:1002400022008C120C1421008C1208002000DD0109
:10025000DE01D301D40104305302540803183229BB
:1002600003193429D41F8D290030850040308400C3
:100270005308F4000310740D84070008F200840A88
:100280000008F30072087F3C73080318031DF31B7A
:10029000592980307202F7007308F800031CF80334
:1002A0004808F9007708FA000720F500F6018031C8
:1002B000732972087F3CF9007309FA000318FA0ADF
:1002C0007908F7007A08F8004808F9007708FA007A
:1002D0000720FB00FB09FC01FB0A031DFC037B0854
:1002E000F5007C08F6007508FB007608FA00FB357F
:1002F000FA0D00308500553084005308F9000310D2
:10030000790D8407840A7A08800084037B088000C2
:10031000D30A0319D40A80312B29DF01E001E1015E
:10032000E201E301E401D301D40104305302540893
:1003300003189C2903199E29D41FCE29003085005B
:10034000553084005308F4000310740D840700082E
:10035000F500840A75085F07F2000008F3006008E2
:10036000F33D72085F07F6007308F9006008F93D75
:10037000F5017908F700F801F91BF8037508E107A2
:100380007608E23D7708E33D7808E43D7208DF0037
:100390007308E000D30A0319D40A95296109E7001C
:1003A0006209E8006309E9006409EF00E70FDD294D
:1003B000E80FDD29E90FDD29EF0AF2016F08EA00F5
:1003C000EF1FEE29E709E809E909EA09E70A031935
:1003D000E80A0319E90A0319EA0AF20A0030EB00F5
:1003E0000830EC00ED01EE01B5207908E5007A084F
:1003F000E600721C002AE509E609E50A0319E60A87
:10040000F001F1011030700271080318092A031974
:100410000B2AF11F08007008F4007108F800710D34
:10042000F80CF40C710DF80CF40C7808F500F81FBA
:100430001E2AF409F509F40A0319F50A0430F60036
:10044000F70193207D08F2007E08F300F81F2D2AA3
:10045000F209F309F20A0319F30A00308500553056
:1004600084007208F5000310750D84070008F6007B
:10047000840A0008F800000DF80CF60C000DF80CCA
:10048000F60C000DF80CF60C76086507F900660806
:10049000F83D00308500203084007008F40003101F
:1004A000740D8407840A780880008403790880002A
:1004B00000308500553084007208F4000310740D7C
:1004C00084070008F500840A0008F600000DF60C09
:1004D000F50C000DF60CF50C7508E5076608F63D01
:1004E0007608E600F00A0319F10A022AD608031D6D
:1004F0007D2AD708031D7D2A902A0130560603194C
:1005000057080319942A023056060319570803198D
:10051000982A033056060319570803199C2AA02A63
:10052000193021009D00A32A153021009D00A32A27
:10053000113021009D00A32A093021009D00A32A2B
:10054000D801D90108009D149D18A42A1C08200078
:10055000D800D9010800E601EF01F001F101F20134
:10056000E31FBE2AE617E209E309E409E509E20A06
:100570000319E30A0319E40A0319E50AE61ADC2A57
:10058000621CD02A5E08EF075F0803185F0FF007B0
:1005900060080318600FF10761080318610FF20784
:1005A0000310E50CE40CE30CE20C0310DE0DDF0D90
:1005B000E00DE10DE60ABE2AE61F0800EF09F0098A
:1005C000F109F209EF0A0319F00A0319F10A0319F4
:1005D000F20A08002000CA017A3021009900FC309C
:1005E0008C00C7308E00043023008C0007308E0052
:1005F00020008C018E01203021009E009512951163
:100600001511951415148B160B118B170B17200051
:10061000CB01CC01CD01CE01D101D201CF01D0015E
:1006200004304F0250080318172B0319192BD01F41
:10063000382B4F08D6005008D70076225808FF3CC8
:10064000D5005909D4000318D40A00308500403081
:1006500084004F08D3000310530D8407840A540804
:100660008000840355088000CF0A0319D00A102B9C
:100670002621D101D20122008C148E1614302000C4
:10068000CD00CE01CF01D00110304F025008031829
:100690004B2B03194D2BD01F532C003085002030DD
:1006A00084004F08E6000310660D84070008EF0081
:1006B000840A0008F000F101F201801F612BF103B0
:1006C000F20384030030E2006F08E2070430E30025
:1006D0007008E33D0030E4007108E43D0030E500BF
:1006E0007208E53D0830DE000230DF00E001E10184
:1006F000AB226F08E7007008E8007108E900720893
:10070000D700DE015708EA00D71F922BE709E80956
:10071000E909EA09E70A0319E80A0319E90A0319CA
:10072000EA0ADE0A0030EB000430EC00ED01EE01D5
:10073000B5207908D3007A08D4007B08D5007C085E
:10074000D6005E1CAE2BD309D409D509D609D30A2D
:100750000319D40A0319D50A0319D60ADE01603039
:10076000E700EA30E800E901EA015308EB00540829
:10077000EC005508ED005608EE00D61FCB2BEB0918
:10078000EC09ED09EE09EB0A0319EC0A0319ED0A6D
:100790000319EE0ADE0AB5207908D8007A08D900D4
:1007A0007B08DA007C08DB005E1CE12BD809D90944
:1007B000DA09DB09D80A0319D90A0319DA0A031975
:1007C000DB0A4F08DE005008DF00500DDF0CDE0CA6
:1007D000500DDF0CDE0CF12022000E16143020002C
:1007E000DC00DD0120005B08003C031D012C5A08E1
:1007F000003C031D012C5908003C031D012C580826
:10080000003CDB1B031403184F2CC9080319F22BFF
:10081000C901D10A0319D20A51087D3C52080318B4
:10082000031DD21B1C2CD101D20122008C148E1668
:1008300014302000CD00CE01CD08031D222CCE089F
:1008400003192D2CCD080319CE03CD0B2D2CCE086A
:10085000031D2D2C22008C108E122000D803580F5F
:10086000382CD903590F382CDA035A0F382CDB03F4
:100870005C08003C5D080318031DDD1BF22BDC083F
:100880000319DD03DC0BF22BDD08031DF22BFF3017
:10089000DE00DF01DF03F12022000E12F22BCF0A6F
:1008A0000319D00A442B4B08D6004C08D7007622F7
:1008B00058087F3C59080318031DD91B652C4B08A9
:1008C000DE004C08DF00F1206A2CFF30DE00DF0183
:1008D000DF03F1202000CB0A0319CC0A4B08033CAC
:1008E0004C080318031DCC1B0E2BCB01CC010E2B87
:1008F00000302000C800C901C001C1018031EA2ACE
:100900000B1D09000530200095000130C9000B11B6
:020910000900DC
:020000040001F9
:02000E00A4FF4D
:02001000FFDE11
:00000001FF
