:020000040000FA
:02000000562880
:0400080080316628B5
:02000E002000D0
:10001000A408031D0F28A508031D0F28222801305E
:10002000240603192508031926280230240603197B
:10003000250803192A280330240603192508031963
:100040002E280800193021009D003128153021008C
:100050009D003128113021009D00312809302100F8
:100060009D009D1408002000AF017A302100990006
:10007000FC308C00E7308E00043023008C00073009
:100080008E0020008C018E01203021009E009512F0
:1000900095111511951415148B160B1120001113C1
:1000A000210011178B170B1707205528003020004F
:1000B000A600A701A001A401A501A801A901AA0108
:1000C000AB01AC01AD01AE01803133280B1D9C2882
:1000D0000530200095000130A700A80803197228F8
:1000E000A80383288E1E8228A908031D83280130B7
:1000F000A900AA000A30A80022008C140A302000AF
:10010000AE008328A901AB0803198828AB03942803
:100110000C1E9328AC08031D94280130AC00AD00E0
:100120000A30AB009428AC01AE0803199B28AE0B33
:100130009B2822008C100B112000111F0900003099
:100140008500203084002408840721001C088000DA
:100150002000A40A0319A50A2508803AB0008030BF
:100160003002031DB52804302402031CB928A40161
:08017000A5011113072009008D
:020000040001F9
:02000E00A4FF4D
:02001000FFDE11
:00000001FF
